:020000040000FA
:04000000FEEFFFF020
:020000040001F9
:10FEC40012001200010204081020900E03011A6FA0
:10FED400540E1B6F000E196F000E186F000EBE6ECD
:10FEE400120003011A517F0B1A6F1750196FB1508A
:10FEF4007F0BB16E1A5180091A6F1200000ECE6E7C
:10FF0400000ECF6E000EC66E000E0401006F200EB0
:10FF1400C76E000E086F1200000E096E000E0A6E06
:10FF2400000E0B6E000E0C6E000E056E000E066EBB
:10FF3400000E076E000E086E1200C80EF66EFE0E5E
:10FF4400F76E010EF86E01EE10F110EE06F00900E6
:10FF5400F5C4EEF4E550E150FAE101EE01F10F0EC3
:10FF6400EE6AE806FDE10001B8EFFFF0048E62ECF2
:10FF7400FFF08EECFFF080ECFFF067ECFFF0D9ECC3
:10FF8400FFF0BE9E63ECFFF0030E176EE80E166ED4
:10FF940073ECFFF0B1AED1EFFFF0D3EFFFF0CCEF95
:10FFA400FFF0900EBE12C1EFFFF0FEEFFFF021EE66
:10FFB40010F111EE16F1050EDBC4E3F4E806FCE2E1
:10FFC400800EBE6E160E0D24D96E050E0E20DA6E4E
:10FFD400DF50BE10BE6E0D4A0E2A060E0D180E100E
:10FFE400D8A4F7EFFFF0F9EFFFF0FDEFFFF0000EFC
:0CFFF4000E6E000E0D6E12009FEFFFF06D
:020000040020DA
:10000000FF0FFF0FFF0FFF0FFF0FFF0FFF0FFF0F80
:10001000FF0FFF0FFF0FFF0FFF0FFF0FFF0FFF0F70
:020000040030CA
:0A0000008CFEFFFC9FFFFFFFFFFFD7
:00000001FF
